:100000000C9463000C948B000C948B000C948B006C
:100010000C948B000C948B000C948B000C948B0034
:100020000C948B000C948B000C948B000C948B0024
:100030000C948B000C948B000C948B000C948B0014
:100040000C94AD060C948B000C947E040C94B004BC
:100050000C948B000C948B000C948B000C948B00F4
:100060000C948B000C948B0000000008000201002F
:100070000003040700000000000000000102040863
:100080001020408001020408102001020408102002
:10009000040404040404040402020202020203032E
:1000A00003030303000000002300260029000000D2
:1000B0000000250028002B0000000000240027007D
:1000C0002A003B03E00411241FBECFEFD8E0DEBFBF
:1000D000CDBF11E0A0E0B1E0E2E4F5E102C005909F
:1000E0000D92AA33B107D9F721E0AAE3B1E001C02C
:1000F0001D92AB3FB207E1F710E0C3E6D0E004C0C9
:100100002197FE010E945D08C136D107C9F70E9400
:100110009E060C949F0A0C940000DC0115966C93CB
:10012000159716964C93169770E0FB01E458FF4F15
:10013000E4911796EC93179760577F4FFB016491FA
:1001400018966C93189740E85EE360E070E01D96A7
:100150004D935D936D937C93509708951F93CF9328
:10016000DF93EC01162F62E08D810E94D0070E9480
:10017000F706605D77408109910969877A878B87E7
:100180009C871A8BDF91CF911F910895CF92DF92B8
:10019000EF92FF92CF93DF93DC011796CC911797E4
:1001A000D0E06111DC2F18962C91189730E0220FC7
:1001B000331F2C553F4F50E040E0F9018591949159
:1001C000FC01F080BA0190E080E0EF2DEC23ED130C
:1001D00010C04F5F5F4F1D96CD90DD90ED90FC906D
:1001E00050976C157D058E059F0538F36FEF7FEFF7
:1001F000CB01DF91CF91FF90EF90DF90CF900895EA
:100200008F929F92AF92BF92CF92DF92EF92FF9226
:100210000F931F93CF93DF93CDB7DEB7C054D14078
:100220000FB6F894DEBF0FBECDBF8C01F62E0E9434
:10023000F706F11029C0F801C184D284E384F48464
:100240009B01AC012C193D094E095F0969017A0136
:1002500030EDC31637E0D306E104F104A8F4818938
:10026000C05CDE4F0FB6F894DEBF0FBECDBFDF918E
:10027000CF911F910F91FF90EF90DF90CF90BF90A3
:10028000AF909F908F900895F80161877287838760
:1002900094871482138212821182108262E0858117
:1002A0000E94D00761E070E080E090E00E942807A3
:1002B00061E0F80185810E94D00760E0F801858146
:1002C0000E940C08F801868185518230E8F48CE4A4
:1002D00094E00E94610762E0F80185810E94D007E6
:1002E000F801828990E00E946107F89460E0C801FB
:1002F0000E94C6006F3F7F4F8F4F9F4F61F4F80100
:10030000118A789480E0ACCF64E170E080E090E006
:100310000E942807E0CF61E0C8010E94C6006F3F3D
:100320007F4F8F4F9F4F59F39E012F5F3F4F7901B2
:100330005E013FEBA31A3EEFB30A670160E0C8011C
:100340000E94C600F601608371838283938361E01B
:10035000C8010E94C600F601648375838683978373
:10036000F8E0CF0ED11CCA14DB0441F7789430E0DA
:1003700020E0F70180809180A280B3804481558184
:1003800066817781FFEF8F169F06AF06BF0631F0BB
:100390004F3F8FEF58076807780719F4F801118A63
:1003A000B1CFF90183E0F595E7958A95E1F7E00F84
:1003B000F11F8081880F84169506A606B706F0F017
:1003C00080832F5F3F4FF8E0EF0EF11C283231059C
:1003D00081F6F801448120818181280F3327331F62
:1003E0008281280F311D8381820F932F911D9927C0
:1003F0004817190699F681E0818B32CF8160E0CFF2
:10040000CF92DF92EF92FF920F931F93CF93DF93E0
:100410008C01C62F642F0E940001882341F0F8014F
:1004200086818C3009F45DC038F48B30E1F060E0F7
:1004300070E080EC9FE74CC085518230C0F7D281DC
:100440006D2F70E0762F662766277F778381682B74
:1004500090E080E00E9476092DEC3CEC4CEC5DE3F2
:100460000E942D0A59C0628170E090E080E00E94F5
:1004700076096B017C01F801D381D7FF0AC0AC017A
:100480009B0160E070E080E89FEB0E9463086B01D5
:100490007C01DF706D2F70E090E080E00E947809B1
:1004A0002DEC3CEC4CEC5DE30E942D0AA70196017B
:1004B0000E946408CC2361F026E636E646EE5FE350
:1004C0000E942D0A20E030E040E052E40E946408DF
:1004D000DF91CF911F910F91FF90EF90DF90CF9020
:1004E0000895D2816D2F70E090E080E00E9476093F
:1004F0006B017C01F80163816F7070E090E080E037
:100500000E9478092DEC3CEC4CEC5DE30E942D0A36
:10051000A70196010E946408D7FFCCCF9058CACF9C
:10052000CF92DF92EF92FF92CF93DF93EC010E9484
:100530000001882341F08E818B3028F08D3040F00F
:100540008551823030F160E070E080EC9FE71AC0A6
:10055000698170E090E080E00E9478092DEC3CEC2D
:100560004CEC5DE30E942D0A6B017C01688170E018
:1005700090E080E00E9478099B01AC01C701B601C0
:100580000E946408DF91CF91FF90EF90DF90CF90B1
:1005900008956881798176276727762790E080E043
:1005A0000E9476092DEC3CEC4CEC5DE30E942D0A98
:1005B000E9CF26E040E855E260E070E085E591E0B3
:1005C0000E941C0467E38AE391E00C94AE0060E0B3
:1005D0008AE391E00E94900260935101709352016E
:1005E000809353019093540140E060E08AE391E0EE
:1005F0000E94000260934D0170934E0180934F0161
:100600009093500160E071E085E591E00E9449051A
:1006100040915101509152016091530170915401E8
:1006200022E030E085E591E00E949B066BE071E0FE
:1006300085E591E00E9449056DE071E085E591E076
:100640000E94490540914D0150914E0160914F012A
:100650007091500122E030E085E591E00E949B0618
:100660006AE085E591E00E94510568EE73E080E064
:1006700090E00C94280726E04BE062E08AE391E0EA
:100680000C948D00FC01918D228D892F90E0805C6F
:100690009F4F821B91098F7399270895FC01918DBB
:1006A000828D981731F0828DE80FF11D858D90E0D5
:1006B00008958FEF9FEF0895FC01918D828D98171B
:1006C00061F0A28DAE0FBF2FB11D5D968C91928D02
:1006D0009F5F9F73928F90E008958FEF9FEF089533
:1006E000FC01538D448D252F30E0842F90E0821B38
:1006F000930B541710F0CF9608950197089586ED47
:1007000094E0892B49F080E090E0892B29F00E9449
:10071000D60481110C9400000895FC01A48DA80F4B
:10072000B92FB11DA35ABF4F2C91848D90E0019633
:100730008F739927848FA689B7892C93A089B18953
:100740008C91837080648C93938D848D981306C0F4
:100750000288F389E02D80818F7D80830895CF9377
:10076000DF93EC01888D8823B9F0AA89BB89E889D9
:10077000F9898C9185FD03C0808186FD0DC00FB67F
:1007800007FCF7CF8C9185FFF2CF808185FFEDCFFD
:10079000CE010E948D03E9CFDF91CF910895EF92B2
:1007A000FF920F931F93CF93DF93EC0181E0888F2B
:1007B0009B8D8C8D98131AC0E889F989808185FFFB
:1007C00015C09FB7F894EE89FF896083E889F9899D
:1007D00080818370806480839FBF81E090E0DF919F
:1007E000CF911F910F91FF90EF900895F62E0B8DF2
:1007F00010E00F5F1F4F0F731127E02E8C8D8E11AD
:100800000CC00FB607FCFACFE889F989808185FF13
:10081000F5CFCE010E948D03F1CFEB8DEC0FFD2FB4
:10082000F11DE35AFF4FF0829FB7F8940B8FEA89CE
:10083000FB8980818062CFCFCF92DF92EF92FF92CF
:100840001F93CF93DF93EC016A017B01122FE8899C
:10085000F98982E08083C11481EED806E104F104B5
:10086000A1F060E079E08DE390E0A70196010E949D
:100870003B08215031094109510956954795379553
:100880002795211580E1380798F0E889F9891082C9
:1008900060E874E88EE190E0A70196010E943B08B1
:1008A00021503109410951095695479537952795AA
:1008B000EC85FD853083EE85FF852083188EEC89DD
:1008C000FD891083EA89FB89808180618083EA89C0
:1008D000FB89808188608083EA89FB8980818068C8
:1008E0008083EA89FB8980818F7D8083DF91CF912E
:1008F0001F91FF90EF90DF90CF9008951F920F927D
:100900000FB60F9211242F938F939F93EF93FF9322
:10091000E0916501F09166018081E0916B01F091B9
:100920006C0182FD1BC0908180916E018F5F8F737F
:1009300020916F01821741F0E0916E01F0E0EB5AD7
:10094000FE4F958F80936E01FF91EF919F918F9154
:100950002F910F900FBE0F901F9018958081F4CFAC
:100960001F920F920FB60F9211242F933F934F9324
:100970005F936F937F938F939F93AF93BF93EF9307
:10098000FF9385E591E00E948D03FF91EF91BF9168
:10099000AF919F918F917F916F915F914F913F9117
:1009A0002F910F900FBE0F901F90189585E591E045
:1009B0000E94420321E0892B09F420E0822F089550
:1009C000E5E5F1E01382128288EE93E0A0E0B0E06A
:1009D00084839583A683B7838FE191E0918380839D
:1009E00085EC90E09587848784EC90E097878687F4
:1009F00080EC90E0918B808B81EC90E0938B828BEC
:100A000082EC90E0958B848B86EC90E0978B868BC4
:100A1000118E128E138E148E0895AF92BF92CF92C4
:100A2000DF92EF92FF920F931F93CF93DF936C01AE
:100A30007B018B01040F151FEB015E01AE18BF088F
:100A4000C017D10759F06991D601ED91FC91019041
:100A5000F081E02DC6010995892B79F7C501DF9159
:100A6000CF911F910F91FF90EF90DF90CF90BF90AB
:100A7000AF900895FB0101900020E9F73197AF0195
:100A8000461B570BDC01ED91FC910280F381E02DB8
:100A900009946115710511F00C943A0590E080E01D
:100AA0000895DC01ED91FC910190F081E02D099415
:100AB0008F929F92AF92BF92EF92FF920F931F93EC
:100AC000CF93DF93CDB7DEB7A1970FB6F894DEBF13
:100AD0000FBECDBF7C01FA01CB0119A2223008F470
:100AE0002AE08E010F5D1F4F822E912CB12CA12C7C
:100AF000BF01A50194010E943B08F901CA016A30B7
:100B00000CF5605DD8016E938D01232B242B252BD2
:100B100079F790E080E0109721F0BD01C7010E94B5
:100B20003A05A1960FB6F894DEBF0FBECDBFDF9198
:100B3000CF911F910F91FF90EF90BF90AF909F903A
:100B40008F900895695CDECF2115310541F4DC01F9
:100B5000ED91FC910190F081E02D642F09940C94AB
:100B600058059A01AB0170E060E00C94A4052F9247
:100B70003F924F925F926F927F928F929F92AF922D
:100B8000BF92CF92DF92EF92FF921F93CF93DF93AA
:100B9000EC016A017B01722EAB019601CB01B6011B
:100BA0000E949A0A6DE271E0811126C04601570148
:100BB000E894B7F82FEF3FEF4FE75FE7C501B401C7
:100BC0000E949A0A81110CC02FEF3FEF4FE75FE7B9
:100BD000C501B4010E94D00861E371E0181664F009
:100BE0002FEF3FEF4FE75FE4C701B6010E94280AED
:100BF0001816B4F465E371E0CE01DF91CF911F9137
:100C0000FF90EF90DF90CF90BF90AF909F908F902C
:100C10007F906F905F904F903F902F900C943A058B
:100C20002FEF3FEF4FE75FECC701B6010E94D008FE
:100C300087FDE0CF20E030E0A901C701B6010E94A6
:100C4000D008312C212C87FF09C06DE2CE010E9413
:100C500051051C01F7FAF094F7F8F09410E060E009
:100C600070E080E09FE3711641F020E030E040E268
:100C700051E40E94D5081F5FF6CFA70196010E949C
:100C800064082B013C010E9447094B015C012AE0EA
:100C9000BC01A401CE010E9458057C01E20CF31CAA
:100CA0001123B1F1C501B4010E9476099B01AC0189
:100CB000C301B2010E9463084B015C016EE2CE01E8
:100CC0000E945105E80EF91E115010F120E030E0AD
:100CD00040E251E4C501B4010E942D0A2B013C0100
:100CE0000E9447094B014AE050E0CE010E94B10545
:100CF000E80EF91EB40190E080E00E9476099B01A5
:100D0000AC01C301B2010E9463084B015C01DCCF5E
:100D1000C701DF91CF911F91FF90EF90DF90CF90AF
:100D2000BF90AF909F908F907F906F905F904F900B
:100D30003F902F9008950C94B70508950E946C077A
:100D40000E949D060E94D902CFE7D3E00E94E702ED
:100D50002097E1F30E947F03F9CF1F920F920FB605
:100D60000F9211242F933F938F939F93AF93BF9331
:100D70008091F3019091F401A091F501B091F601F9
:100D80003091F20123E0230F2D3758F50196A11D74
:100D9000B11D2093F2018093F3019093F401A0938D
:100DA000F501B093F6018091F7019091F801A091BF
:100DB000F901B091FA010196A11DB11D8093F701CF
:100DC0009093F801A093F901B093FA01BF91AF910C
:100DD0009F918F913F912F910F900FBE0F901F9079
:100DE000189526E8230F0296A11DB11DD2CF2FB76B
:100DF000F8946091F3017091F4018091F501909164
:100E0000F6012FBF08953FB7F8948091F7019091B4
:100E1000F801A091F901B091FA0126B5A89B05C08F
:100E20002F3F19F00196A11DB11D3FBFBA2FA92F69
:100E3000982F8827BC01CD01620F711D811D911D66
:100E400042E0660F771F881F991F4A95D1F70895D2
:100E50008F929F92AF92BF92CF92DF92EF92FF92CA
:100E60006B017C010E9403074B015C01C114D1049A
:100E7000E104F104E9F00E943A080E9403076819AE
:100E800079098A099B09683E73408105910570F3D1
:100E900021E0C21AD108E108F10888EE880E83E04B
:100EA000981EA11CB11CC114D104E104F10429F75E
:100EB000FF90EF90DF90CF90BF90AF909F908F907A
:100EC00008958230910538F0880F991F880F991F77
:100ED00005970197F1F70895789484B5826084BDF1
:100EE00084B5816084BD85B5826085BD85B581602E
:100EF00085BDEEE6F0E0808181608083E1E8F0E08E
:100F00001082808182608083808181608083E0E8BC
:100F1000F0E0808181608083E1EBF0E0808184609B
:100F20008083E0EBF0E0808181608083EAE7F0E09D
:100F30008081846080838081826080838081816001
:100F400080838081806880831092C10008958330FF
:100F500081F028F4813099F08230A9F0089587302B
:100F6000A9F08830C9F08430B1F4809180008F7D81
:100F700003C0809180008F7780938000089584B5AE
:100F80008F7784BD089584B58F7DFBCF8091B000AD
:100F90008F778093B00008958091B0008F7DF9CF56
:100FA000CF93DF9390E0FC01E458FF4F24918057EA
:100FB0009F4FFC0184918823C9F090E0880F991F0E
:100FC000FC01E854FF4FA591B491FC01E255FF4F9D
:100FD000C591D49161110DC09FB7F8948C91209563
:100FE00082238C938881282328839FBFDF91CF9110
:100FF0000895623051F49FB7F8943C91822F809508
:1010000083238C93E8812E2BEFCF8FB7F894EC914C
:101010002E2B2C938FBFEACF1F93CF93DF93282FD4
:1010200030E0F901E859FF4F8491F901E458FF4F8E
:10103000D491F901E057FF4FC491CC23A9F0162FAA
:1010400081110E94A707EC2FF0E0EE0FFF1FE25581
:10105000FF4FA591B4918FB7F894EC91111108C08E
:10106000D095DE23DC938FBFDF91CF911F91089540
:10107000DE2BF8CF0895A1E21A2EAA1BBB1BFD019F
:101080000DC0AA1FBB1FEE1FFF1FA217B307E40767
:10109000F50720F0A21BB30BE40BF50B661F771FBF
:1010A000881F991F1A9469F760957095809590959F
:1010B0009B01AC01BD01CF010895EE0FFF1F05900C
:1010C000F491E02D09945058BB27AA270E947B0871
:1010D0000C94EE090E94E00938F00E94E70920F024
:1010E00039F49F3F19F426F40C94DD090EF4E095D1
:1010F000E7FB0C94D709E92F0E94FF0958F3BA17B0
:10110000620773078407950720F079F4A6F50C941D
:10111000210A0EF4E0950B2EBA2FA02D0B01B90178
:1011200090010C01CA01A0011124FF27591B99F05D
:10113000593F50F4503E68F11A16F040A22F232F69
:10114000342F4427585FF3CF469537952795A795B9
:10115000F0405395C9F77EF41F16BA0B620B730B60
:10116000840BBAF09150A1F0FF0FBB1F661F771FD1
:10117000881FC2F70EC0BA0F621F731F841F48F486
:10118000879577956795B795F7959E3F08F0B0CF0F
:101190009395880F08F09927EE0F979587950895F6
:1011A0000E94B30908F481E008950E94E9080C94B4
:1011B000EE090E94E70958F00E94E00940F029F486
:1011C0005F3F29F00C94D70951110C94220A0C941A
:1011D000DD090E94FF0968F39923B1F3552391F3C8
:1011E000951B550BBB27AA2762177307840738F096
:1011F0009F5F5F4F220F331F441FAA1FA9F335D0F3
:101200000E2E3AF0E0E832D091505040E695001CA6
:10121000CAF72BD0FE2F29D0660F771F881FBB1F60
:10122000261737074807AB07B0E809F0BB0B802D3E
:10123000BF01FF2793585F4F3AF09E3F510578F06A
:101240000C94D7090C94220A5F3FE4F3983ED4F340
:10125000869577956795B795F7959F5FC9F7880F3E
:10126000911D9695879597F90895E1E0660F771F90
:10127000881FBB1F621773078407BA0720F0621B21
:10128000730B840BBA0BEE1F88F7E09508950E944C
:10129000070A88F09F5798F0B92F9927B751B0F0F7
:1012A000E1F0660F771F881F991F1AF0BA95C9F7EA
:1012B00014C0B13091F00E94210AB1E008950C945D
:1012C000210A672F782F8827B85F39F0B93FCCF310
:1012D000869577956795B395D9F73EF49095809567
:1012E000709561957F4F8F4F9F4F0895E89409C087
:1012F00097FB3EF490958095709561957F4F8F4F49
:101300009F4F9923A9F0F92F96E9BB279395F6955E
:10131000879577956795B795F111F8CFFAF4BB0FDC
:1013200011F460FF1BC06F5F7F4F8F4F9F4F16C040
:10133000882311F096E911C0772321F09EE8872FCA
:10134000762F05C0662371F096E8862F70E060E086
:101350002AF09A95660F771F881FDAF7880F9695FF
:10136000879597F90895990F0008550FAA0BE0E8A3
:10137000FEEF16161706E807F907C0F01216130657
:10138000E407F50798F0621B730B840B950B39F497
:101390000A2661F0232B242B252B21F408950A26FD
:1013A00009F4A140A6958FEF811D811D089597F93D
:1013B0009F6780E870E060E008959FEF80EC0895FB
:1013C00000240A9416161706180609060895002424
:1013D0000A9412161306140605060895092E03949E
:1013E000000C11F4882352F0BB0F40F4BF2B11F412
:1013F00060FF04C06F5F7F4F8F4F9F4F089557FD71
:101400009058440F551F59F05F3F71F04795880F72
:1014100097FB991F61F09F3F79F087950895121609
:1014200013061406551FF2CF4695F1DF08C01616B5
:1014300017061806991FF1CF869571056105089466
:101440000895E894BB2766277727CB0197F908957D
:101450000E94B30908F48FEF08950E94400A0C948B
:10146000EE090E94E00938F00E94E70920F0952378
:1014700011F00C94D7090C94DD0911240C94220A64
:101480000E94FF0970F3959FC1F3950F50E0551F1F
:10149000629FF001729FBB27F00DB11D639FAA27C9
:1014A000F00DB11DAA1F649F6627B00DA11D661F18
:1014B000829F2227B00DA11D621F739FB00DA11D39
:1014C000621F839FA00D611D221F749F3327A00DF3
:1014D000611D231F849F600D211D822F762F6A2F8F
:1014E00011249F5750409AF0F1F088234AF0EE0FF4
:1014F000FF1FBB1F661F771F881F91505040A9F721
:101500009E3F510580F00C94D7090C94220A5F3F4E
:10151000E4F3983ED4F3869577956795B795F7955C
:10152000E7959F5FC1F7FE2B880F911D96958795D4
:1015300097F908950E94B309880B990B0895F894C0
:02154000FFCFDB
:1015420048756D69646974793A2000090054656DC3
:1015520070657261747572653A200000000000CFF8
:10156200030D057003AF0342035C034E036E616E0D
:0A15720000696E66006F76660000E7
:00000001FF
